:020000040800F2
:10000000000002200D0300085D0300085D030008E6
:100010005D0300085D0300085D03000800000000A8
:100020000000000000000000000000005D03000868
:100030005D030008000000005D0300085D03000888
:100040005D0300085D0300085D0300085D03000810
:100050005D0300085D0300085D0300085D03000800
:100060005D0300085D0300085D0300085D030008F0
:100070005D0300085D0300085D0300085D030008E0
:100080005D0300085D0300085D0300080000000038
:100090000000000000000000000000005D030008F8
:1000A0005D0300085D0300085D0300085D030008B0
:1000B0005D0300085D0300085D0300085D030008A0
:1000C0005D0300085D0300085D0300085D03000890
:1000D0005D0300085D0300085D03000800000000E8
:1000E0005D0300085D0300085D03000800000000D8
:1000F0000000000000000000000000005D03000898
:10010000000000005D0300085D0300085D030008B7
:1001100000000000000000000000000000000000DF
:100120005D0300085D0300085D0300085D0300082F
:100130005D03000800000000000000000000000057
:100140000000000000000000000000005D03000847
:100150005D0300085D0300085D0300085D030008FF
:100160005D0300085D0300080000000000000000BF
:10017000000000000000000000000000000000007F
:10018000000000000000000000000000000000006F
:080190005D0300085D03000897
:1001980010B5054C237833B9044B13B10448AFF3B9
:1001A80000800123237010BD04000020000000001F
:1001B800A803000808B5034B1BB103490348AFF374
:1001C800008008BD0000000008000020A803000807
:1001D80084B001900A4B1B680A4AA2FB03235B0AFE
:1001E800019A02FB03F3039300E000BF039B5A1E2E
:1001F8000392002BF9D100BF00BF04B0704700BFC5
:1002080000000020D34D621008B5394BD3F8002800
:1002180042F48032C3F80028D3F800289103FBD5B4
:10022800D3F8002C22F00702C3F8002CD3F8002CD6
:1002380042F00302C3F8002CD3F8042822F07462B9
:1002480022F45F3222F47F7222F00302C3F80428FA
:10025800D3F80418274A0A43C3F80428D3F8002817
:1002680042F08072C3F80028214BD3F8002892018D
:10027800FBD5D3F8082822F47C4222F0F002C3F818
:100288000828D3F8082842F41042C3F80828D3F8FD
:10029800082822F0030242F00202C3F80828144B8F
:1002A800D3F8082802F00C02082AF9D1124A134997
:1002B8001160D3F83028124C42F00802C3F83028F5
:1002C800D4F8003C43F08063C4F8003CD4F8003C08
:1002D80023F00063C4F8003CD4F8143C83F40053C2
:1002E800C4F8143C4FF47A70FFF772FFF4E700BFCC
:1002F80000300240083040040000002000D8B80553
:10030800000002400D488546AFF300800C480D49B7
:100318000D4A002302E0D458C4500433C4188C4258
:10032800F9D30A4A0A4C002301E013600432A242BE
:10033800FBD300F011F8FFF767FFFEE7000002208B
:100348000000002004000020C8030008040000206A
:1003580020000020FEE7000070B50D4D0D4C641B19
:10036800A4100026A64209D10B4D0C4C00F018F839
:10037800641BA4100026A64205D170BD55F8043BA5
:1003880098470136EEE755F8043B98470136F2E7FF
:10039800C0030008C0030008C0030008C403000825
:1003A800F8B500BFF8BC08BC9E467047F8B500BF5A
:0803B800F8BC08BC9E4670472A
:0403C000BD01000873
:0403C4009901000893
:0403C80000D8B8059C
:040000050800030DDF
:00000001FF
